:107C00001124C4B714BE83E5BCD0C1FD09C0C3FDB7
:107C100099D181E4B6D08CB58F7A8CBD8C2FFAD2F5
:107C200085E08093810082E08093C00088E18093AA
:107C3000C10086E08093C20080E18093C4008EE0A2
:107C400076D1399A86E020E33CEF91E030938500CD
:107C50002093840096BBB09BFECF319AA8958150AB
:107C6000A9F7C0E0D0E001E025E0F22E31E1E32EFB
:107C700013E04FD1813471F44CD1D82EBCD282E8BC
:107C8000D816F9F0E1E8DE1202C085E001C083E019
:107C900078D074C0823411F484E103C0853419F4BF
:107CA00085E0B1D26BC0853541F433D1C82F31D1D5
:107CB000D0E0D82BCC0FDD1F60C0863521F484E0E6
:107CC000A2D280E0E5CF843609F03BC022D121D199
:107CD000B82E1FD1C115F0E7DF0718F4FE0117BF5A
:107CE000E895C12CDD24D39414D1F60181936F0162
:107CF000BE12FACFC115F0E7DF0718F0FE0117BF7B
:107D0000E89579D207B600FCFDCFFE01A0E0B1E016
:107D10008C9111962C91119790E0922B0C0107BF3A
:107D2000E895112432961296A03881E0B80781F7C1
:107D3000FE01F7BEE89507B600FCFDCFE7BEE8956B
:107D40001DC0843769F4E5D0E4D0D82EE2D053D2F8
:107D5000FE018591EF0115D0DA94D110F9CF0EC054
:107D6000853739F448D28EE10CD085E90AD08FE00E
:107D70008FCF813511F488E0DAD03DD280E101D097
:107D800078CF9091C00095FFFCCF8093C6000895F6
:107D9000CF93AB01BC01352F29ECE4EAF4EAA0EA69
:107DA00094E8B1EA215009F4B1C0F093BC0080E03E
:107DB000C091BC00C7FD05C08F5F8B3FC9F781E351
:107DC0000CC08091B900887F80930001803139F028
:107DD000883359F3883019F08DE4D3DF97C0A0932E
:107DE000BB009093BC0080E0C091BC00C7FD05C003
:107DF0008F5F8B3FC9F782E376C08091B900887F9F
:107E000080930001803271F2883379F2883109F071
:107E100078C03093BB009093BC0080E0C091BC0060
:107E2000C7FD05C08F5F8B3FC9F783E35CC08091BE
:107E3000B900887F809300018832A9F44093BB0089
:107E40009093BC0080E0C091BC00C7FD05C08F5F6F
:107E50008B3FC9F784E347C08091B900887F809346
:107E60000001883221F0883309F49FCF4AC0E093A3
:107E7000BC0080E0C091BC00C7FD05C08F5F8B3F98
:107E8000C9F785E330C08091B900887F80930001F5
:107E9000803129F0883309F488CF883091F5B09388
:107EA000BB009093BC0080E0C091BC00C7FD05C042
:107EB0008F5F8B3FC9F786E316C08091B900887F3A
:107EC00080930001883309F470CF8034D1F484E8C2
:107ED0008093BC0080E09091BC0097FD06C08F5F4E
:107EE0008B3FC9F787E34DDF0CC08091B900887FD5
:107EF00080930001803511F0883519F48091BB0022
:107F000001C08FEF94E99093BC0001C08FEFCF9137
:107F10000895319A8091C00087FFFCCF8091C00006
:107F200084FD01C0A8958091C600319A0895811101
:107F300003C094B7977F94BF98E1909360008093BB
:107F4000600008959F92AF92BF92CF92DF92EF921E
:107F5000FF920F931F93CF93DF9386E412DF80E0AD
:107F6000E6DF1092B90088E48093B80084E0809343
:107F7000BC008AE006DF82E304DF60E070E0CB0152
:107F800007DFFFDE61E070E080E090E001DFF9DE16
:107F900062E070E080E090E0FBDEF3DE66E070E03F
:107FA00080E090E0F5DEEDDE69E070E080E090E0FA
:107FB000EFDEE7DE60E070E0CB01EADE863409F058
:107FC00001C161E070E080E090E0E2DE8C3409F015
:107FD000F9C062E070E080E090E0DADE883509F018
:107FE000F1C066E070E080E090E0D2DE8A3309F014
:107FF000E9C069E070E080E090E0CADE8A3309F011
:10800000E1C08CE4BEDE67E070E080E090E0C0DEBE
:10801000C82F68E070E080E090E0BADED0E0DC2FAE
:10802000CC27C82BC0FDDBC0319AC12CD12C00E07D
:1080300010E0BB24B39483E0A82E95E0992E0C1792
:108040001D0708F030C08AE29CDEB801665F7F4FF2
:1080500080E090E09DDEE82EF12CB801655F7F4F57
:1080600080E090E095DEF82AF8010701B7BEE895B8
:1080700011240E5F1F4FC8018F779927892B19F0A4
:10808000C017D107E1F6F601A7BEE89507B600FCD8
:10809000FDCFF60197BEE89507B600FCFDCFF0E8EE
:1080A000CF0ED11CCCCF319881E187BFE89585E414
:1080B00068DE99EC34EA40EA24E8915009F47FC084
:1080C0003093BC0080E05091BC0057FD06C08F5F2C
:1080D0008B3FC9F781E455DE72C08091B900887F7B
:1080E00080930001803129F0883351F3883009F002
:1080F00066C04093BB002093BC0080E05091BC0060
:1081000057FD05C08F5F8B3FC9F782E419C080918E
:10811000B900887F80930001803279F2883381F240
:10812000883109F049C01092BB002093BC0080E068
:108130005091BC0057FD06C08F5F8B3FC9F783E4A9
:1081400020DE3AC08091B900887F80930001883298
:10815000A9F41092BB002093BC0080E05091BC00B9
:1081600057FD05C08F5F8B3FC9F784E4E9CF80914D
:10817000B900887F80930001883221F0883309F4A8
:108180009FCF1AC098E02FEF34E82093BB003093C4
:10819000BC0080E04091BC0047FD05C08F5F8B3F75
:1081A000C9F785E4CDCF8091B900887F8093000125
:1081B000883211F4915049F784E98093BC0088E03B
:1081C000B6DEFFCF88E5DF91CF911F910F91FF9031
:1081D000EF90DF90CF90BF90AF909F90D2CDDF9186
:1081E000CF911F910F91FF90EF90DF90CF90BF90B4
:1081F000AF909F9008958DDE803219F088E097DE71
:10820000FFCF84E1BECDCF93C82F83DEC150E9F705
:10821000CF91F1CF282E80E08ADEEE27FF27099448
:027FFE0000057C
:0400000300007C007D
:00000001FF
